{
  "contractName": "Lottery",
  "abi": [
    {
      "inputs": [],
      "stateMutability": "nonpayable",
      "type": "constructor"
    },
    {
      "anonymous": false,
      "inputs": [
        {
          "indexed": false,
          "internalType": "uint256",
          "name": "index",
          "type": "uint256"
        },
        {
          "indexed": false,
          "internalType": "address",
          "name": "bettor",
          "type": "address"
        },
        {
          "indexed": false,
          "internalType": "uint256",
          "name": "amount",
          "type": "uint256"
        },
        {
          "indexed": false,
          "internalType": "bytes1",
          "name": "challenges",
          "type": "bytes1"
        },
        {
          "indexed": false,
          "internalType": "uint256",
          "name": "answerBlockNumber",
          "type": "uint256"
        }
      ],
      "name": "BET",
      "type": "event"
    },
    {
      "anonymous": false,
      "inputs": [
        {
          "indexed": false,
          "internalType": "uint256",
          "name": "index",
          "type": "uint256"
        },
        {
          "indexed": false,
          "internalType": "address",
          "name": "bettor",
          "type": "address"
        },
        {
          "indexed": false,
          "internalType": "uint256",
          "name": "amount",
          "type": "uint256"
        },
        {
          "indexed": false,
          "internalType": "bytes1",
          "name": "challenges",
          "type": "bytes1"
        },
        {
          "indexed": false,
          "internalType": "bytes1",
          "name": "answer",
          "type": "bytes1"
        },
        {
          "indexed": false,
          "internalType": "uint256",
          "name": "answerBlockNumber",
          "type": "uint256"
        }
      ],
      "name": "DRAW",
      "type": "event"
    },
    {
      "anonymous": false,
      "inputs": [
        {
          "indexed": false,
          "internalType": "uint256",
          "name": "index",
          "type": "uint256"
        },
        {
          "indexed": false,
          "internalType": "address",
          "name": "bettor",
          "type": "address"
        },
        {
          "indexed": false,
          "internalType": "uint256",
          "name": "amount",
          "type": "uint256"
        },
        {
          "indexed": false,
          "internalType": "bytes1",
          "name": "challenges",
          "type": "bytes1"
        },
        {
          "indexed": false,
          "internalType": "bytes1",
          "name": "answer",
          "type": "bytes1"
        },
        {
          "indexed": false,
          "internalType": "uint256",
          "name": "answerBlockNumber",
          "type": "uint256"
        }
      ],
      "name": "FAIL",
      "type": "event"
    },
    {
      "anonymous": false,
      "inputs": [
        {
          "indexed": false,
          "internalType": "uint256",
          "name": "index",
          "type": "uint256"
        },
        {
          "indexed": false,
          "internalType": "address",
          "name": "bettor",
          "type": "address"
        },
        {
          "indexed": false,
          "internalType": "uint256",
          "name": "amount",
          "type": "uint256"
        },
        {
          "indexed": false,
          "internalType": "bytes1",
          "name": "challenges",
          "type": "bytes1"
        },
        {
          "indexed": false,
          "internalType": "uint256",
          "name": "answerBlockNumber",
          "type": "uint256"
        }
      ],
      "name": "REFUND",
      "type": "event"
    },
    {
      "anonymous": false,
      "inputs": [
        {
          "indexed": false,
          "internalType": "uint256",
          "name": "index",
          "type": "uint256"
        },
        {
          "indexed": false,
          "internalType": "address",
          "name": "bettor",
          "type": "address"
        },
        {
          "indexed": false,
          "internalType": "uint256",
          "name": "amount",
          "type": "uint256"
        },
        {
          "indexed": false,
          "internalType": "bytes1",
          "name": "challenges",
          "type": "bytes1"
        },
        {
          "indexed": false,
          "internalType": "bytes1",
          "name": "answer",
          "type": "bytes1"
        },
        {
          "indexed": false,
          "internalType": "uint256",
          "name": "answerBlockNumber",
          "type": "uint256"
        }
      ],
      "name": "WIN",
      "type": "event"
    },
    {
      "inputs": [],
      "name": "answerForTest",
      "outputs": [
        {
          "internalType": "bytes32",
          "name": "",
          "type": "bytes32"
        }
      ],
      "stateMutability": "view",
      "type": "function"
    },
    {
      "inputs": [],
      "name": "owner",
      "outputs": [
        {
          "internalType": "address payable",
          "name": "",
          "type": "address"
        }
      ],
      "stateMutability": "view",
      "type": "function"
    },
    {
      "inputs": [
        {
          "internalType": "bytes1",
          "name": "challenges",
          "type": "bytes1"
        }
      ],
      "name": "bet",
      "outputs": [
        {
          "internalType": "bool",
          "name": "result",
          "type": "bool"
        }
      ],
      "stateMutability": "payable",
      "type": "function"
    },
    {
      "inputs": [],
      "name": "getPot",
      "outputs": [
        {
          "internalType": "uint256",
          "name": "pot",
          "type": "uint256"
        }
      ],
      "stateMutability": "view",
      "type": "function"
    },
    {
      "inputs": [],
      "name": "distribute",
      "outputs": [],
      "stateMutability": "nonpayable",
      "type": "function"
    },
    {
      "inputs": [
        {
          "internalType": "bytes32",
          "name": "answer",
          "type": "bytes32"
        }
      ],
      "name": "setAnswerForTest",
      "outputs": [
        {
          "internalType": "bool",
          "name": "result",
          "type": "bool"
        }
      ],
      "stateMutability": "nonpayable",
      "type": "function"
    },
    {
      "inputs": [
        {
          "internalType": "bytes1",
          "name": "challenges",
          "type": "bytes1"
        },
        {
          "internalType": "bytes32",
          "name": "answer",
          "type": "bytes32"
        }
      ],
      "name": "isMatch",
      "outputs": [
        {
          "internalType": "enum Lottery.BettingResult",
          "name": "",
          "type": "uint8"
        }
      ],
      "stateMutability": "pure",
      "type": "function"
    },
    {
      "inputs": [
        {
          "internalType": "uint256",
          "name": "index",
          "type": "uint256"
        }
      ],
      "name": "getBetInfo",
      "outputs": [
        {
          "internalType": "uint256",
          "name": "answerBlockNumber",
          "type": "uint256"
        },
        {
          "internalType": "address",
          "name": "bettor",
          "type": "address"
        },
        {
          "internalType": "bytes1",
          "name": "challenges",
          "type": "bytes1"
        }
      ],
      "stateMutability": "view",
      "type": "function"
    }
  ],
  "bytecode": "0x60806040526000600560006101000a81548160ff02191690831515021790555034801561002b57600080fd5b5033600360006101000a81548173ffffffffffffffffffffffffffffffffffffffff021916908373ffffffffffffffffffffffffffffffffffffffff1602179055506117c68061007c6000396000f3fe60806040526004361061007b5760003560e01c80638da5cb5b1161004e5780638da5cb5b1461015257806399a167d71461017d578063e4fc6b6d146101ba578063f4b46f5b146101d15761007b565b8063403c9fa8146100805780637009fa36146100ab57806379141f80146100e857806384f7e4f014610127575b600080fd5b34801561008c57600080fd5b50610095610201565b6040516100a29190610f8d565b60405180910390f35b3480156100b757600080fd5b506100d260048036038101906100cd9190610fe3565b61020b565b6040516100df919061102b565b60405180910390f35b3480156100f457600080fd5b5061010f600480360381019061010a9190611072565b6102ad565b60405161011e9392919061111b565b60405180910390f35b34801561013357600080fd5b5061013c6103ab565b6040516101499190611161565b60405180910390f35b34801561015e57600080fd5b506101676103b1565b604051610174919061119d565b60405180910390f35b34801561018957600080fd5b506101a4600480360381019061019f91906111e4565b6103d7565b6040516101b1919061129b565b60405180910390f35b3480156101c657600080fd5b506101cf6106c0565b005b6101eb60048036038101906101e691906112b6565b610b13565b6040516101f8919061102b565b60405180910390f35b6000600454905090565b6000600360009054906101000a900473ffffffffffffffffffffffffffffffffffffffff1673ffffffffffffffffffffffffffffffffffffffff163373ffffffffffffffffffffffffffffffffffffffff161461029d576040517f08c379a000000000000000000000000000000000000000000000000000000000815260040161029490611366565b60405180910390fd5b8160068190555060019050919050565b60008060008060026000868152602001908152602001600020604051806060016040529081600082015481526020016001820160009054906101000a900473ffffffffffffffffffffffffffffffffffffffff1673ffffffffffffffffffffffffffffffffffffffff1673ffffffffffffffffffffffffffffffffffffffff1681526020016001820160149054906101000a900460f81b7effffffffffffffffffffffffffffffffffffffffffffffffffffffffffffff19167effffffffffffffffffffffffffffffffffffffffffffffffffffffffffffff1916815250509050806000015193508060200151925080604001519150509193909250565b60065481565b600360009054906101000a900473ffffffffffffffffffffffffffffffffffffffff1681565b60008083905060008490506000846000602081106103f8576103f7611386565b5b1a60f81b905060008560006020811061041457610413611386565b5b1a60f81b90506004847effffffffffffffffffffffffffffffffffffffffffffffffffffffffffffff1916901c93506004847effffffffffffffffffffffffffffffffffffffffffffffffffffffffffffff1916901b93506004827effffffffffffffffffffffffffffffffffffffffffffffffffffffffffffff1916901c91506004827effffffffffffffffffffffffffffffffffffffffffffffffffffffffffffff1916901b91506004837effffffffffffffffffffffffffffffffffffffffffffffffffffffffffffff1916901b92506004837effffffffffffffffffffffffffffffffffffffffffffffffffffffffffffff1916901c92506004817effffffffffffffffffffffffffffffffffffffffffffffffffffffffffffff1916901b90506004817effffffffffffffffffffffffffffffffffffffffffffffffffffffffffffff1916901c9050837effffffffffffffffffffffffffffffffffffffffffffffffffffffffffffff1916827effffffffffffffffffffffffffffffffffffffffffffffffffffffffffffff19161480156105f85750827effffffffffffffffffffffffffffffffffffffffffffffffffffffffffffff1916817effffffffffffffffffffffffffffffffffffffffffffffffffffffffffffff1916145b1561060a5760019450505050506106ba565b837effffffffffffffffffffffffffffffffffffffffffffffffffffffffffffff1916827effffffffffffffffffffffffffffffffffffffffffffffffffffffffffffff1916148061069f5750827effffffffffffffffffffffffffffffffffffffffffffffffffffffffffffff1916817effffffffffffffffffffffffffffffffffffffffffffffffffffffffffffff1916145b156106b15760029450505050506106ba565b60009450505050505b92915050565b6000806106cb610f1b565b60008060015494505b600054851015610b055760026000868152602001908152602001600020604051806060016040529081600082015481526020016001820160009054906101000a900473ffffffffffffffffffffffffffffffffffffffff1673ffffffffffffffffffffffffffffffffffffffff1673ffffffffffffffffffffffffffffffffffffffff1681526020016001820160149054906101000a900460f81b7effffffffffffffffffffffffffffffffffffffffffffffffffffffffffffff19167effffffffffffffffffffffffffffffffffffffffffffffffffffffffffffff19168152505092506107c68360000151610c08565b9150600060028111156107dc576107db611224565b5b8260028111156107ef576107ee611224565b5b03610a2d5760006108038460000151610c6a565b90506108138460400151826103d7565b91506001600281111561082957610828611224565b5b82600281111561083c5761083b611224565b5b036108d25761086384602001516611c37937e0800060045461085e91906113e4565b610c92565b945060006004819055507f8219079e2d6c1192fb0ff7f78e6faaf5528ad6687e69749205d87bd4b156912b868560200151878760400151856000602081106108ae576108ad611386565b5b1a60f81b89600001516040516108c996959493929190611499565b60405180910390a15b600060028111156108e6576108e5611224565b5b8260028111156108f9576108f8611224565b5b03610984576611c37937e080006004600082825461091791906113e4565b925050819055507f3b19d607433249d2ebc766ae82ca3848e9c064f1febb5147bc6e5b21d0adebc586856020015160008760400151856000602081106109605761095f611386565b5b1a60f81b896000015160405161097b96959493929190611535565b60405180910390a15b60028081111561099757610996611224565b5b8260028111156109aa576109a9611224565b5b03610a2b576109c484602001516611c37937e08000610c92565b94507f72ec2e949e4fad9380f9d5db3e2ed0e71cf22c51d8d66424508bdc761a3f4b0e86856020015187876040015185600060208110610a0757610a06611386565b5b1a60f81b8960000151604051610a2296959493929190611499565b60405180910390a15b505b60016002811115610a4157610a40611224565b5b826002811115610a5457610a53611224565b5b0315610b0557600280811115610a6d57610a6c611224565b5b826002811115610a8057610a7f611224565b5b03610ae857610a9a83602001516611c37937e08000610c92565b93507f59c0185881271a0f53d43e6ab9310091408f9e0ff9ae2512613de800f26b8de48584602001518686604001518760000151604051610adf959493929190611596565b60405180910390a15b610af185610d64565b508480610afd906115e9565b9550506106d4565b846001819055505050505050565b60006611c37937e080003414610b5e576040517f08c379a0000000000000000000000000000000000000000000000000000000008152600401610b559061167d565b60405180910390fd5b610b6782610dc8565b610ba6576040517f08c379a0000000000000000000000000000000000000000000000000000000008152600401610b9d906116e9565b60405180910390fd5b7f100791de9f40bf2d56ffa6dc5597d2fd0b2703ea70bc7548cd74c04f5d215ab76001600054610bd69190611709565b333485600343610be691906113e4565b604051610bf795949392919061173d565b60405180910390a160019050919050565b60008143118015610c25575081610100610c2291906113e4565b43105b15610c335760009050610c65565b814311610c435760019050610c65565b61010082610c5191906113e4565b4310610c605760029050610c65565b600290505b919050565b6000600560009054906101000a900460ff16610c8857600654610c8b565b81405b9050919050565b6000806000905060008184610ca79190611709565b90508473ffffffffffffffffffffffffffffffffffffffff166108fc829081150290604051600060405180830381858888f19350505050158015610cef573d6000803e3d6000fd5b50600360009054906101000a900473ffffffffffffffffffffffffffffffffffffffff1673ffffffffffffffffffffffffffffffffffffffff166108fc839081150290604051600060405180830381858888f19350505050158015610d58573d6000803e3d6000fd5b50809250505092915050565b6000600260008381526020019081526020016000206000808201600090556001820160006101000a81549073ffffffffffffffffffffffffffffffffffffffff02191690556001820160146101000a81549060ff0219169055505060019050919050565b6000610dd2610f1b565b33816020019073ffffffffffffffffffffffffffffffffffffffff16908173ffffffffffffffffffffffffffffffffffffffff1681525050600343610e1791906113e4565b8160000181815250508281604001907effffffffffffffffffffffffffffffffffffffffffffffffffffffffffffff191690817effffffffffffffffffffffffffffffffffffffffffffffffffffffffffffff1916815250508060026000805481526020019081526020016000206000820151816000015560208201518160010160006101000a81548173ffffffffffffffffffffffffffffffffffffffff021916908373ffffffffffffffffffffffffffffffffffffffff16021790555060408201518160010160146101000a81548160ff021916908360f81c0217905550905050600080815480929190610f0c906115e9565b91905055506001915050919050565b604051806060016040528060008152602001600073ffffffffffffffffffffffffffffffffffffffff16815260200160007effffffffffffffffffffffffffffffffffffffffffffffffffffffffffffff191681525090565b6000819050919050565b610f8781610f74565b82525050565b6000602082019050610fa26000830184610f7e565b92915050565b600080fd5b6000819050919050565b610fc081610fad565b8114610fcb57600080fd5b50565b600081359050610fdd81610fb7565b92915050565b600060208284031215610ff957610ff8610fa8565b5b600061100784828501610fce565b91505092915050565b60008115159050919050565b61102581611010565b82525050565b6000602082019050611040600083018461101c565b92915050565b61104f81610f74565b811461105a57600080fd5b50565b60008135905061106c81611046565b92915050565b60006020828403121561108857611087610fa8565b5b60006110968482850161105d565b91505092915050565b600073ffffffffffffffffffffffffffffffffffffffff82169050919050565b60006110ca8261109f565b9050919050565b6110da816110bf565b82525050565b60007fff0000000000000000000000000000000000000000000000000000000000000082169050919050565b611115816110e0565b82525050565b60006060820190506111306000830186610f7e565b61113d60208301856110d1565b61114a604083018461110c565b949350505050565b61115b81610fad565b82525050565b60006020820190506111766000830184611152565b92915050565b60006111878261109f565b9050919050565b6111978161117c565b82525050565b60006020820190506111b2600083018461118e565b92915050565b6111c1816110e0565b81146111cc57600080fd5b50565b6000813590506111de816111b8565b92915050565b600080604083850312156111fb576111fa610fa8565b5b6000611209858286016111cf565b925050602061121a85828601610fce565b9150509250929050565b7f4e487b7100000000000000000000000000000000000000000000000000000000600052602160045260246000fd5b6003811061126457611263611224565b5b50565b600081905061127582611253565b919050565b600061128582611267565b9050919050565b6112958161127a565b82525050565b60006020820190506112b0600083018461128c565b92915050565b6000602082840312156112cc576112cb610fa8565b5b60006112da848285016111cf565b91505092915050565b600082825260208201905092915050565b7f6f6e6c796f77657220636e61207365742074686520616e7377657220666f722060008201527f74657374206d6f64650000000000000000000000000000000000000000000000602082015250565b60006113506029836112e3565b915061135b826112f4565b604082019050919050565b6000602082019050818103600083015261137f81611343565b9050919050565b7f4e487b7100000000000000000000000000000000000000000000000000000000600052603260045260246000fd5b7f4e487b7100000000000000000000000000000000000000000000000000000000600052601160045260246000fd5b60006113ef82610f74565b91506113fa83610f74565b9250827fffffffffffffffffffffffffffffffffffffffffffffffffffffffffffffffff0382111561142f5761142e6113b5565b5b828201905092915050565b6000819050919050565b600061145f61145a6114558461109f565b61143a565b61109f565b9050919050565b600061147182611444565b9050919050565b600061148382611466565b9050919050565b61149381611478565b82525050565b600060c0820190506114ae6000830189610f7e565b6114bb602083018861148a565b6114c86040830187610f7e565b6114d5606083018661110c565b6114e2608083018561110c565b6114ef60a0830184610f7e565b979650505050505050565b6000819050919050565b600061151f61151a611515846114fa565b61143a565b610f74565b9050919050565b61152f81611504565b82525050565b600060c08201905061154a6000830189610f7e565b611557602083018861148a565b6115646040830187611526565b611571606083018661110c565b61157e608083018561110c565b61158b60a0830184610f7e565b979650505050505050565b600060a0820190506115ab6000830188610f7e565b6115b8602083018761148a565b6115c56040830186610f7e565b6115d2606083018561110c565b6115df6080830184610f7e565b9695505050505050565b60006115f482610f74565b91507fffffffffffffffffffffffffffffffffffffffffffffffffffffffffffffffff8203611626576116256113b5565b5b600182019050919050565b7f4e6f7420656e6f75676820455448000000000000000000000000000000000000600082015250565b6000611667600e836112e3565b915061167282611631565b602082019050919050565b600060208201905081810360008301526116968161165a565b9050919050565b7f4661696c20746f206164642061206e6577200000000000000000000000000000600082015250565b60006116d36012836112e3565b91506116de8261169d565b602082019050919050565b60006020820190508181036000830152611702816116c6565b9050919050565b600061171482610f74565b915061171f83610f74565b925082821015611732576117316113b5565b5b828203905092915050565b600060a0820190506117526000830188610f7e565b61175f60208301876110d1565b61176c6040830186610f7e565b611779606083018561110c565b6117866080830184610f7e565b969550505050505056fea2646970667358221220822952c065498a671e94e20348e3998927ed43af265cb467998f066b5048173a64736f6c634300080d0033",
  "immutableReferences": {},
  "source": "// SPDX-License-Identifier: MIT\r\npragma solidity >=0.4.22 <0.9.0;\r\n\r\n/* \r\nLottery \r\n1. + 3     '0xab....'\r\na.      + 3   \r\n\r\n2.  \r\na.       \r\nb.         .\r\nc.         . 0.005ETH : 5 * 10 ** 15 wei\r\nd.         .\r\n*/\r\n\r\ncontract Lottery {\r\n    struct BetInfo {\r\n        uint256 answerBlockNumber; //    \r\n        address payable bettor; //  \r\n        bytes1 challenges; // ex : 0xab Lottery \r\n    }\r\n\r\n    uint256 private _tail; \r\n    uint256 private _head;\r\n    mapping (uint256 => BetInfo) private _bets;  // bets  queue    tail  0 head  \r\n    address payable public owner; // contract \r\n\r\n\r\n    uint256 constant internal BLOCK_LIMIT = 256; //  256  \r\n    uint256 constant internal BET_BLOCK_INTERVAL = 3; // +3   \r\n    uint256 constant internal BET_AMOUNT = 5 * 10 ** 15; //  \r\n    uint256 private _pot; //  \r\n    bool private mode = false; // false : test mode, true : use real block hash\r\n    bytes32 public answerForTest;\r\n\r\n    enum BlockStatus {Checkable, NotRevealed, BlockLimitPassed} \r\n    enum BettingResult {Fail, Win, Draw}   \r\n    event BET(uint256 index, address bettor, uint256 amount, bytes1 challenges, uint256 answerBlockNumber);\r\n    event WIN(uint256 index, address bettor, uint256 amount, bytes1 challenges, bytes1 answer, uint256 answerBlockNumber);\r\n    event FAIL(uint256 index, address bettor, uint256 amount, bytes1 challenges, bytes1 answer, uint256 answerBlockNumber);\r\n    event DRAW(uint256 index, address bettor, uint256 amount, bytes1 challenges, bytes1 answer, uint256 answerBlockNumber);\r\n    event REFUND(uint256 index, address bettor, uint256 amount, bytes1 challenges, uint256 answerBlockNumber);\r\n\r\n    constructor() {\r\n        owner = payable(msg.sender);\r\n    }\r\n\r\n    //  \r\n    function bet(bytes1 challenges) public payable returns (bool result) {\r\n        //    \r\n        require(msg.value == BET_AMOUNT, \"Not enough ETH\");\r\n        // queue bet \r\n        require(pushBet(challenges), \"Fail to add a new \");\r\n        //  \r\n        emit BET(_tail -1, msg.sender, msg.value, challenges, block.number + BET_BLOCK_INTERVAL);\r\n        return true;\r\n    }\r\n\r\n\r\n\r\n    //   \r\n    function getPot() public view returns (uint256 pot) {\r\n        return _pot;\r\n    }\r\n\r\n    //  () queue  \r\n\r\n    //  ()          \r\n\r\n    function distribute() public {\r\n        // head 3 ...... 286 287 288\r\n        uint256 cur;\r\n        uint256 transferAmount;\r\n\r\n        BetInfo memory b;\r\n        BlockStatus currentBlockStatus;\r\n        BettingResult currentBettingResult;\r\n        for(cur =_head; cur < _tail; cur++) {\r\n            b = _bets[cur];\r\n            currentBlockStatus = getBlockStatus(b.answerBlockNumber);\r\n            //     : block.number > AnswerBlockNumber && block.number < BlOCK_LIMIT + AnserBlockNumber 1\r\n            if(currentBlockStatus == BlockStatus.Checkable) {\r\n                bytes32 answerBlockHash = getAnswerBlockHash(b.answerBlockNumber);\r\n                currentBettingResult = isMatch(b.challenges, answerBlockHash);\r\n                // if win   \r\n            if(currentBettingResult == BettingResult.Win) {\r\n                //  ,  0 , WIN \r\n               transferAmount = transferAfterPayingFee(b.bettor, _pot + BET_AMOUNT);\r\n               _pot = 0;\r\n               emit WIN(cur, b.bettor, transferAmount, b.challenges, answerBlockHash[0], b.answerBlockNumber);\r\n            }\r\n                // if fail   \r\n                //    , FAIL  \r\n            if(currentBettingResult == BettingResult.Fail) {\r\n                _pot += BET_AMOUNT;\r\n                emit FAIL(cur, b.bettor, 0, b.challenges, answerBlockHash[0], b.answerBlockNumber);\r\n            }\r\n                // if draw \r\n                //   , DRAW \r\n            if(currentBettingResult == BettingResult.Draw) {\r\n               transferAmount = transferAfterPayingFee(b.bettor, BET_AMOUNT);\r\n               emit DRAW(cur, b.bettor, transferAmount, b.challenges, answerBlockHash[0], b.answerBlockNumber);            \r\n            }\r\n        }\r\n            // block    : block.number <= AnswerBlockNumber 2\r\n            if(currentBlockStatus == BlockStatus.NotRevealed) {\r\n                break;\r\n            }\r\n            // block   : block.number >= AnswerBlockNumber + BLOCK_LIMIT 3\r\n            if(currentBlockStatus == BlockStatus.BlockLimitPassed) {\r\n                //  :   \r\n                transferAmount = transferAfterPayingFee(b.bettor, BET_AMOUNT);\r\n                emit REFUND(cur, b.bettor, transferAmount, b.challenges, b.answerBlockNumber);\r\n            }\r\n\r\n            popBet(cur);\r\n        }\r\n        _head = cur;\r\n    }\r\n\r\n        //   \r\n        function transferAfterPayingFee(address payable addr, uint256 amount) internal returns(uint256) {\r\n            uint256 fee = 0; \r\n            uint256 amountWithoutFee = amount - fee; \r\n            // uint256 fee = amount / 100; \r\n            addr.transfer(amountWithoutFee);\r\n            owner.transfer(fee);\r\n\r\n            return amountWithoutFee;\r\n        }\r\n\r\n\r\n        //   \r\n        function setAnswerForTest(bytes32 answer) public returns(bool result) {\r\n            require(msg.sender == owner, \"onlyower cna set the answer for test mode\");\r\n            answerForTest = answer;\r\n            return true;\r\n        }\r\n        function getAnswerBlockHash(uint256 answerBlockNumber) internal view returns(bytes32 answer) {\r\n            return mode ? blockhash(answerBlockNumber) : answerForTest;\r\n        }\r\n        function isMatch(bytes1 challenges, bytes32 answer) public pure returns(BettingResult) {\r\n        // challenges 0xab\r\n        // answer 0xab....ff 32bytes\r\n\r\n        bytes1 c1 = challenges;\r\n        bytes1 c2 = challenges;\r\n\r\n        bytes1 a1 = answer[0];\r\n        bytes1 a2 = answer[0];\r\n\r\n        //   \r\n        c1 = c1 >> 4; // 0xab -> 0x0a\r\n        c1 = c1 << 4; // ox0a -> 0xa0\r\n\r\n        a1 = a1 >> 4;\r\n        a1 = a1 << 4;\r\n\r\n        //   \r\n        c2 = c2 << 4; // 0xab -> 0xb0\r\n        c2 = c2 >> 4; // 0xb0 -> 0x0b\r\n\r\n        a2 = a2 << 4;\r\n        a2 = a2 >> 4;\r\n\r\n        if(a1 == c1 && a2 == c2) {\r\n            return BettingResult.Win;\r\n        }\r\n\r\n        if(a1 == c1 || a2 == c2) {\r\n            return BettingResult.Draw;\r\n        }\r\n\r\n        return BettingResult.Fail;\r\n    }    \r\n\r\n\r\n\r\n    function getBlockStatus(uint256 answerBlockNumber) internal view returns (BlockStatus) {\r\n        if(block.number > answerBlockNumber && block.number < BLOCK_LIMIT + answerBlockNumber) {\r\n            return BlockStatus.Checkable;\r\n        }\r\n\r\n        if(block.number <= answerBlockNumber) {\r\n            return BlockStatus.NotRevealed;\r\n        }\r\n\r\n        if(block.number >= answerBlockNumber + BLOCK_LIMIT) {\r\n            return BlockStatus.BlockLimitPassed;\r\n        }\r\n\r\n        return BlockStatus.BlockLimitPassed;\r\n    }\r\n\r\n\r\n    function getBetInfo(uint256 index) public view returns (uint256 answerBlockNumber, address bettor, bytes1 challenges) {\r\n        BetInfo memory b = _bets[index];\r\n        answerBlockNumber = b.answerBlockNumber;\r\n        bettor = b.bettor;\r\n        challenges = b.challenges;\r\n    }\r\n\r\n    function pushBet(bytes1 challenges) internal returns (bool) {\r\n         BetInfo memory b;\r\n         b.bettor = payable(msg.sender);\r\n         b.answerBlockNumber = block.number + BET_BLOCK_INTERVAL;\r\n         b.challenges = challenges;\r\n\r\n         _bets[_tail] = b;\r\n         _tail++;\r\n\r\n         return true;\r\n    }\r\n\r\n    function popBet(uint256 index) internal returns (bool) {\r\n        delete _bets[index];\r\n        return true;\r\n    }\r\n}",
  "sourcePath": "/home/wjdgus2903/work/lottery-smart-contract/contracts/Lottery.sol",
  "compiler": {
    "name": "solc",
    "version": "0.8.13+commit.abaa5c0e.Emscripten.clang"
  },
  "schemaVersion": "3.4.6",
  "updatedAt": "2022-04-23T12:03:37.625Z",
  "devdoc": {
    "kind": "dev",
    "methods": {},
    "version": 1
  },
  "userdoc": {
    "kind": "user",
    "methods": {},
    "version": 1
  }
}