{
  "contractName": "Lottery",
  "abi": [
    {
      "inputs": [],
      "stateMutability": "nonpayable",
      "type": "constructor"
    },
    {
      "anonymous": false,
      "inputs": [
        {
          "indexed": false,
          "internalType": "uint256",
          "name": "index",
          "type": "uint256"
        },
        {
          "indexed": false,
          "internalType": "address",
          "name": "bettor",
          "type": "address"
        },
        {
          "indexed": false,
          "internalType": "uint256",
          "name": "amount",
          "type": "uint256"
        },
        {
          "indexed": false,
          "internalType": "bytes1",
          "name": "challenges",
          "type": "bytes1"
        },
        {
          "indexed": false,
          "internalType": "uint256",
          "name": "answerBlockNumber",
          "type": "uint256"
        }
      ],
      "name": "BET",
      "type": "event"
    },
    {
      "anonymous": false,
      "inputs": [
        {
          "indexed": false,
          "internalType": "uint256",
          "name": "index",
          "type": "uint256"
        },
        {
          "indexed": false,
          "internalType": "address",
          "name": "bettor",
          "type": "address"
        },
        {
          "indexed": false,
          "internalType": "uint256",
          "name": "amount",
          "type": "uint256"
        },
        {
          "indexed": false,
          "internalType": "bytes1",
          "name": "challenges",
          "type": "bytes1"
        },
        {
          "indexed": false,
          "internalType": "bytes1",
          "name": "answer",
          "type": "bytes1"
        },
        {
          "indexed": false,
          "internalType": "uint256",
          "name": "answerBlockNumber",
          "type": "uint256"
        }
      ],
      "name": "DRAW",
      "type": "event"
    },
    {
      "anonymous": false,
      "inputs": [
        {
          "indexed": false,
          "internalType": "uint256",
          "name": "index",
          "type": "uint256"
        },
        {
          "indexed": false,
          "internalType": "address",
          "name": "bettor",
          "type": "address"
        },
        {
          "indexed": false,
          "internalType": "uint256",
          "name": "amount",
          "type": "uint256"
        },
        {
          "indexed": false,
          "internalType": "bytes1",
          "name": "challenges",
          "type": "bytes1"
        },
        {
          "indexed": false,
          "internalType": "bytes1",
          "name": "answer",
          "type": "bytes1"
        },
        {
          "indexed": false,
          "internalType": "uint256",
          "name": "answerBlockNumber",
          "type": "uint256"
        }
      ],
      "name": "FAIL",
      "type": "event"
    },
    {
      "anonymous": false,
      "inputs": [
        {
          "indexed": false,
          "internalType": "uint256",
          "name": "index",
          "type": "uint256"
        },
        {
          "indexed": false,
          "internalType": "address",
          "name": "bettor",
          "type": "address"
        },
        {
          "indexed": false,
          "internalType": "uint256",
          "name": "amount",
          "type": "uint256"
        },
        {
          "indexed": false,
          "internalType": "bytes1",
          "name": "challenges",
          "type": "bytes1"
        },
        {
          "indexed": false,
          "internalType": "uint256",
          "name": "answerBlockNumber",
          "type": "uint256"
        }
      ],
      "name": "REFUND",
      "type": "event"
    },
    {
      "anonymous": false,
      "inputs": [
        {
          "indexed": false,
          "internalType": "uint256",
          "name": "index",
          "type": "uint256"
        },
        {
          "indexed": false,
          "internalType": "address",
          "name": "bettor",
          "type": "address"
        },
        {
          "indexed": false,
          "internalType": "uint256",
          "name": "amount",
          "type": "uint256"
        },
        {
          "indexed": false,
          "internalType": "bytes1",
          "name": "challenges",
          "type": "bytes1"
        },
        {
          "indexed": false,
          "internalType": "bytes1",
          "name": "answer",
          "type": "bytes1"
        },
        {
          "indexed": false,
          "internalType": "uint256",
          "name": "answerBlockNumber",
          "type": "uint256"
        }
      ],
      "name": "WIN",
      "type": "event"
    },
    {
      "inputs": [],
      "name": "answerForTest",
      "outputs": [
        {
          "internalType": "bytes32",
          "name": "",
          "type": "bytes32"
        }
      ],
      "stateMutability": "view",
      "type": "function",
      "constant": true
    },
    {
      "inputs": [],
      "name": "owner",
      "outputs": [
        {
          "internalType": "address payable",
          "name": "",
          "type": "address"
        }
      ],
      "stateMutability": "view",
      "type": "function",
      "constant": true
    },
    {
      "inputs": [
        {
          "internalType": "bytes1",
          "name": "challenges",
          "type": "bytes1"
        }
      ],
      "name": "betAndDistribute",
      "outputs": [
        {
          "internalType": "bool",
          "name": "result",
          "type": "bool"
        }
      ],
      "stateMutability": "payable",
      "type": "function",
      "payable": true
    },
    {
      "inputs": [
        {
          "internalType": "bytes1",
          "name": "challenges",
          "type": "bytes1"
        }
      ],
      "name": "bet",
      "outputs": [
        {
          "internalType": "bool",
          "name": "result",
          "type": "bool"
        }
      ],
      "stateMutability": "payable",
      "type": "function",
      "payable": true
    },
    {
      "inputs": [],
      "name": "getPot",
      "outputs": [
        {
          "internalType": "uint256",
          "name": "pot",
          "type": "uint256"
        }
      ],
      "stateMutability": "view",
      "type": "function",
      "constant": true
    },
    {
      "inputs": [],
      "name": "distribute",
      "outputs": [],
      "stateMutability": "nonpayable",
      "type": "function"
    },
    {
      "inputs": [
        {
          "internalType": "bytes32",
          "name": "answer",
          "type": "bytes32"
        }
      ],
      "name": "setAnswerForTest",
      "outputs": [
        {
          "internalType": "bool",
          "name": "result",
          "type": "bool"
        }
      ],
      "stateMutability": "nonpayable",
      "type": "function"
    },
    {
      "inputs": [
        {
          "internalType": "bytes1",
          "name": "challenges",
          "type": "bytes1"
        },
        {
          "internalType": "bytes32",
          "name": "answer",
          "type": "bytes32"
        }
      ],
      "name": "isMatch",
      "outputs": [
        {
          "internalType": "enum Lottery.BettingResult",
          "name": "",
          "type": "uint8"
        }
      ],
      "stateMutability": "pure",
      "type": "function",
      "constant": true
    },
    {
      "inputs": [
        {
          "internalType": "uint256",
          "name": "index",
          "type": "uint256"
        }
      ],
      "name": "getBetInfo",
      "outputs": [
        {
          "internalType": "uint256",
          "name": "answerBlockNumber",
          "type": "uint256"
        },
        {
          "internalType": "address",
          "name": "bettor",
          "type": "address"
        },
        {
          "internalType": "bytes1",
          "name": "challenges",
          "type": "bytes1"
        }
      ],
      "stateMutability": "view",
      "type": "function",
      "constant": true
    }
  ],
  "bytecode": "0x60806040526000600560006101000a81548160ff02191690831515021790555034801561002b57600080fd5b5033600360006101000a81548173ffffffffffffffffffffffffffffffffffffffff021916908373ffffffffffffffffffffffffffffffffffffffff16021790555061181e8061007c6000396000f3fe6080604052600436106100865760003560e01c80638da5cb5b116100595780638da5cb5b1461015d57806399a167d714610188578063e16ea857146101c5578063e4fc6b6d146101f5578063f4b46f5b1461020c57610086565b8063403c9fa81461008b5780637009fa36146100b657806379141f80146100f357806384f7e4f014610132575b600080fd5b34801561009757600080fd5b506100a061023c565b6040516100ad9190610fe5565b60405180910390f35b3480156100c257600080fd5b506100dd60048036038101906100d8919061103b565b610246565b6040516100ea9190611083565b60405180910390f35b3480156100ff57600080fd5b5061011a600480360381019061011591906110ca565b6102e8565b60405161012993929190611173565b60405180910390f35b34801561013e57600080fd5b506101476103e6565b60405161015491906111b9565b60405180910390f35b34801561016957600080fd5b506101726103ec565b60405161017f91906111f5565b60405180910390f35b34801561019457600080fd5b506101af60048036038101906101aa919061123c565b610412565b6040516101bc91906112f3565b60405180910390f35b6101df60048036038101906101da919061130e565b6106fb565b6040516101ec9190611083565b60405180910390f35b34801561020157600080fd5b5061020a610718565b005b6102266004803603810190610221919061130e565b610b6b565b6040516102339190611083565b60405180910390f35b6000600454905090565b6000600360009054906101000a900473ffffffffffffffffffffffffffffffffffffffff1673ffffffffffffffffffffffffffffffffffffffff163373ffffffffffffffffffffffffffffffffffffffff16146102d8576040517f08c379a00000000000000000000000000000000000000000000000000000000081526004016102cf906113be565b60405180910390fd5b8160068190555060019050919050565b60008060008060026000868152602001908152602001600020604051806060016040529081600082015481526020016001820160009054906101000a900473ffffffffffffffffffffffffffffffffffffffff1673ffffffffffffffffffffffffffffffffffffffff1673ffffffffffffffffffffffffffffffffffffffff1681526020016001820160149054906101000a900460f81b7effffffffffffffffffffffffffffffffffffffffffffffffffffffffffffff19167effffffffffffffffffffffffffffffffffffffffffffffffffffffffffffff1916815250509050806000015193508060200151925080604001519150509193909250565b60065481565b600360009054906101000a900473ffffffffffffffffffffffffffffffffffffffff1681565b6000808390506000849050600084600060208110610433576104326113de565b5b1a60f81b905060008560006020811061044f5761044e6113de565b5b1a60f81b90506004847effffffffffffffffffffffffffffffffffffffffffffffffffffffffffffff1916901c93506004847effffffffffffffffffffffffffffffffffffffffffffffffffffffffffffff1916901b93506004827effffffffffffffffffffffffffffffffffffffffffffffffffffffffffffff1916901c91506004827effffffffffffffffffffffffffffffffffffffffffffffffffffffffffffff1916901b91506004837effffffffffffffffffffffffffffffffffffffffffffffffffffffffffffff1916901b92506004837effffffffffffffffffffffffffffffffffffffffffffffffffffffffffffff1916901c92506004817effffffffffffffffffffffffffffffffffffffffffffffffffffffffffffff1916901b90506004817effffffffffffffffffffffffffffffffffffffffffffffffffffffffffffff1916901c9050837effffffffffffffffffffffffffffffffffffffffffffffffffffffffffffff1916827effffffffffffffffffffffffffffffffffffffffffffffffffffffffffffff19161480156106335750827effffffffffffffffffffffffffffffffffffffffffffffffffffffffffffff1916817effffffffffffffffffffffffffffffffffffffffffffffffffffffffffffff1916145b156106455760019450505050506106f5565b837effffffffffffffffffffffffffffffffffffffffffffffffffffffffffffff1916827effffffffffffffffffffffffffffffffffffffffffffffffffffffffffffff191614806106da5750827effffffffffffffffffffffffffffffffffffffffffffffffffffffffffffff1916817effffffffffffffffffffffffffffffffffffffffffffffffffffffffffffff1916145b156106ec5760029450505050506106f5565b60009450505050505b92915050565b600061070682610b6b565b5061070f610718565b60019050919050565b600080610723610f73565b60008060015494505b600054851015610b5d5760026000868152602001908152602001600020604051806060016040529081600082015481526020016001820160009054906101000a900473ffffffffffffffffffffffffffffffffffffffff1673ffffffffffffffffffffffffffffffffffffffff1673ffffffffffffffffffffffffffffffffffffffff1681526020016001820160149054906101000a900460f81b7effffffffffffffffffffffffffffffffffffffffffffffffffffffffffffff19167effffffffffffffffffffffffffffffffffffffffffffffffffffffffffffff191681525050925061081e8360000151610c60565b9150600060028111156108345761083361127c565b5b8260028111156108475761084661127c565b5b03610a8557600061085b8460000151610cc2565b905061086b846040015182610412565b9150600160028111156108815761088061127c565b5b8260028111156108945761089361127c565b5b0361092a576108bb84602001516611c37937e080006004546108b6919061143c565b610cea565b945060006004819055507f8219079e2d6c1192fb0ff7f78e6faaf5528ad6687e69749205d87bd4b156912b86856020015187876040015185600060208110610906576109056113de565b5b1a60f81b8960000151604051610921969594939291906114f1565b60405180910390a15b6000600281111561093e5761093d61127c565b5b8260028111156109515761095061127c565b5b036109dc576611c37937e080006004600082825461096f919061143c565b925050819055507f3b19d607433249d2ebc766ae82ca3848e9c064f1febb5147bc6e5b21d0adebc586856020015160008760400151856000602081106109b8576109b76113de565b5b1a60f81b89600001516040516109d39695949392919061158d565b60405180910390a15b6002808111156109ef576109ee61127c565b5b826002811115610a0257610a0161127c565b5b03610a8357610a1c84602001516611c37937e08000610cea565b94507f72ec2e949e4fad9380f9d5db3e2ed0e71cf22c51d8d66424508bdc761a3f4b0e86856020015187876040015185600060208110610a5f57610a5e6113de565b5b1a60f81b8960000151604051610a7a969594939291906114f1565b60405180910390a15b505b60016002811115610a9957610a9861127c565b5b826002811115610aac57610aab61127c565b5b0315610b5d57600280811115610ac557610ac461127c565b5b826002811115610ad857610ad761127c565b5b03610b4057610af283602001516611c37937e08000610cea565b93507f59c0185881271a0f53d43e6ab9310091408f9e0ff9ae2512613de800f26b8de48584602001518686604001518760000151604051610b379594939291906115ee565b60405180910390a15b610b4985610dbc565b508480610b5590611641565b95505061072c565b846001819055505050505050565b60006611c37937e080003414610bb6576040517f08c379a0000000000000000000000000000000000000000000000000000000008152600401610bad906116d5565b60405180910390fd5b610bbf82610e20565b610bfe576040517f08c379a0000000000000000000000000000000000000000000000000000000008152600401610bf590611741565b60405180910390fd5b7f100791de9f40bf2d56ffa6dc5597d2fd0b2703ea70bc7548cd74c04f5d215ab76001600054610c2e9190611761565b333485600343610c3e919061143c565b604051610c4f959493929190611795565b60405180910390a160019050919050565b60008143118015610c7d575081610100610c7a919061143c565b43105b15610c8b5760009050610cbd565b814311610c9b5760019050610cbd565b61010082610ca9919061143c565b4310610cb85760029050610cbd565b600290505b919050565b6000600560009054906101000a900460ff16610ce057600654610ce3565b81405b9050919050565b6000806000905060008184610cff9190611761565b90508473ffffffffffffffffffffffffffffffffffffffff166108fc829081150290604051600060405180830381858888f19350505050158015610d47573d6000803e3d6000fd5b50600360009054906101000a900473ffffffffffffffffffffffffffffffffffffffff1673ffffffffffffffffffffffffffffffffffffffff166108fc839081150290604051600060405180830381858888f19350505050158015610db0573d6000803e3d6000fd5b50809250505092915050565b6000600260008381526020019081526020016000206000808201600090556001820160006101000a81549073ffffffffffffffffffffffffffffffffffffffff02191690556001820160146101000a81549060ff0219169055505060019050919050565b6000610e2a610f73565b33816020019073ffffffffffffffffffffffffffffffffffffffff16908173ffffffffffffffffffffffffffffffffffffffff1681525050600343610e6f919061143c565b8160000181815250508281604001907effffffffffffffffffffffffffffffffffffffffffffffffffffffffffffff191690817effffffffffffffffffffffffffffffffffffffffffffffffffffffffffffff1916815250508060026000805481526020019081526020016000206000820151816000015560208201518160010160006101000a81548173ffffffffffffffffffffffffffffffffffffffff021916908373ffffffffffffffffffffffffffffffffffffffff16021790555060408201518160010160146101000a81548160ff021916908360f81c0217905550905050600080815480929190610f6490611641565b91905055506001915050919050565b604051806060016040528060008152602001600073ffffffffffffffffffffffffffffffffffffffff16815260200160007effffffffffffffffffffffffffffffffffffffffffffffffffffffffffffff191681525090565b6000819050919050565b610fdf81610fcc565b82525050565b6000602082019050610ffa6000830184610fd6565b92915050565b600080fd5b6000819050919050565b61101881611005565b811461102357600080fd5b50565b6000813590506110358161100f565b92915050565b60006020828403121561105157611050611000565b5b600061105f84828501611026565b91505092915050565b60008115159050919050565b61107d81611068565b82525050565b60006020820190506110986000830184611074565b92915050565b6110a781610fcc565b81146110b257600080fd5b50565b6000813590506110c48161109e565b92915050565b6000602082840312156110e0576110df611000565b5b60006110ee848285016110b5565b91505092915050565b600073ffffffffffffffffffffffffffffffffffffffff82169050919050565b6000611122826110f7565b9050919050565b61113281611117565b82525050565b60007fff0000000000000000000000000000000000000000000000000000000000000082169050919050565b61116d81611138565b82525050565b60006060820190506111886000830186610fd6565b6111956020830185611129565b6111a26040830184611164565b949350505050565b6111b381611005565b82525050565b60006020820190506111ce60008301846111aa565b92915050565b60006111df826110f7565b9050919050565b6111ef816111d4565b82525050565b600060208201905061120a60008301846111e6565b92915050565b61121981611138565b811461122457600080fd5b50565b60008135905061123681611210565b92915050565b6000806040838503121561125357611252611000565b5b600061126185828601611227565b925050602061127285828601611026565b9150509250929050565b7f4e487b7100000000000000000000000000000000000000000000000000000000600052602160045260246000fd5b600381106112bc576112bb61127c565b5b50565b60008190506112cd826112ab565b919050565b60006112dd826112bf565b9050919050565b6112ed816112d2565b82525050565b600060208201905061130860008301846112e4565b92915050565b60006020828403121561132457611323611000565b5b600061133284828501611227565b91505092915050565b600082825260208201905092915050565b7f6f6e6c796f77657220636e61207365742074686520616e7377657220666f722060008201527f74657374206d6f64650000000000000000000000000000000000000000000000602082015250565b60006113a860298361133b565b91506113b38261134c565b604082019050919050565b600060208201905081810360008301526113d78161139b565b9050919050565b7f4e487b7100000000000000000000000000000000000000000000000000000000600052603260045260246000fd5b7f4e487b7100000000000000000000000000000000000000000000000000000000600052601160045260246000fd5b600061144782610fcc565b915061145283610fcc565b9250827fffffffffffffffffffffffffffffffffffffffffffffffffffffffffffffffff038211156114875761148661140d565b5b828201905092915050565b6000819050919050565b60006114b76114b26114ad846110f7565b611492565b6110f7565b9050919050565b60006114c98261149c565b9050919050565b60006114db826114be565b9050919050565b6114eb816114d0565b82525050565b600060c0820190506115066000830189610fd6565b61151360208301886114e2565b6115206040830187610fd6565b61152d6060830186611164565b61153a6080830185611164565b61154760a0830184610fd6565b979650505050505050565b6000819050919050565b600061157761157261156d84611552565b611492565b610fcc565b9050919050565b6115878161155c565b82525050565b600060c0820190506115a26000830189610fd6565b6115af60208301886114e2565b6115bc604083018761157e565b6115c96060830186611164565b6115d66080830185611164565b6115e360a0830184610fd6565b979650505050505050565b600060a0820190506116036000830188610fd6565b61161060208301876114e2565b61161d6040830186610fd6565b61162a6060830185611164565b6116376080830184610fd6565b9695505050505050565b600061164c82610fcc565b91507fffffffffffffffffffffffffffffffffffffffffffffffffffffffffffffffff820361167e5761167d61140d565b5b600182019050919050565b7f4e6f7420656e6f75676820455448000000000000000000000000000000000000600082015250565b60006116bf600e8361133b565b91506116ca82611689565b602082019050919050565b600060208201905081810360008301526116ee816116b2565b9050919050565b7f4661696c20746f206164642061206e6577200000000000000000000000000000600082015250565b600061172b60128361133b565b9150611736826116f5565b602082019050919050565b6000602082019050818103600083015261175a8161171e565b9050919050565b600061176c82610fcc565b915061177783610fcc565b92508282101561178a5761178961140d565b5b828203905092915050565b600060a0820190506117aa6000830188610fd6565b6117b76020830187611129565b6117c46040830186610fd6565b6117d16060830185611164565b6117de6080830184610fd6565b969550505050505056fea26469706673582212205a8ba7a85f17fcbd185d6eb451db3c0258aa5a1afebc86666c03ffb460e2d09664736f6c634300080d0033",
  "immutableReferences": {},
  "source": "// SPDX-License-Identifier: MIT\r\npragma solidity >=0.4.22 <0.9.0;\r\n\r\n/* \r\nLottery \r\n1. + 3     '0xab....'\r\na.      + 3   \r\n\r\n2.  \r\na.       \r\nb.         .\r\nc.         . 0.005ETH : 5 * 10 ** 15 wei\r\nd.         .\r\n*/\r\n\r\ncontract Lottery {\r\n    struct BetInfo {\r\n        uint256 answerBlockNumber; //    \r\n        address payable bettor; //  \r\n        bytes1 challenges; // ex : 0xab Lottery \r\n    }\r\n\r\n    uint256 private _tail; \r\n    uint256 private _head;\r\n    mapping (uint256 => BetInfo) private _bets;  // bets  queue    tail  0 head  \r\n    address payable public owner; // contract \r\n\r\n\r\n    uint256 constant internal BLOCK_LIMIT = 256; //  256  \r\n    uint256 constant internal BET_BLOCK_INTERVAL = 3; // +3   \r\n    uint256 constant internal BET_AMOUNT = 5 * 10 ** 15; //  \r\n    uint256 private _pot; //  \r\n    bool private mode = false; // false : test mode, true : use real block hash\r\n    bytes32 public answerForTest;\r\n\r\n    enum BlockStatus {Checkable, NotRevealed, BlockLimitPassed} \r\n    enum BettingResult {Fail, Win, Draw}   \r\n    event BET(uint256 index, address bettor, uint256 amount, bytes1 challenges, uint256 answerBlockNumber);\r\n    event WIN(uint256 index, address bettor, uint256 amount, bytes1 challenges, bytes1 answer, uint256 answerBlockNumber);\r\n    event FAIL(uint256 index, address bettor, uint256 amount, bytes1 challenges, bytes1 answer, uint256 answerBlockNumber);\r\n    event DRAW(uint256 index, address bettor, uint256 amount, bytes1 challenges, bytes1 answer, uint256 answerBlockNumber);\r\n    event REFUND(uint256 index, address bettor, uint256 amount, bytes1 challenges, uint256 answerBlockNumber);\r\n\r\n    constructor() {\r\n        owner = payable(msg.sender);\r\n    }\r\n\r\n    //  ,    .\r\n\r\n    function betAndDistribute(bytes1 challenges) public payable returns(bool result) {\r\n        bet(challenges);\r\n\r\n        distribute();\r\n\r\n        return true;\r\n    }\r\n\r\n\r\n    //  \r\n    function bet(bytes1 challenges) public payable returns (bool result) {\r\n        //    \r\n        require(msg.value == BET_AMOUNT, \"Not enough ETH\");\r\n        // queue bet \r\n        require(pushBet(challenges), \"Fail to add a new \");\r\n        //  \r\n        emit BET(_tail -1, msg.sender, msg.value, challenges, block.number + BET_BLOCK_INTERVAL);\r\n        return true;\r\n    }\r\n\r\n\r\n\r\n    //   \r\n    function getPot() public view returns (uint256 pot) {\r\n        return _pot;\r\n    }\r\n\r\n    //  () queue  \r\n\r\n    //  ()          \r\n\r\n    function distribute() public {\r\n        // head 3 ...... 286 287 288\r\n        uint256 cur;\r\n        uint256 transferAmount;\r\n\r\n        BetInfo memory b;\r\n        BlockStatus currentBlockStatus;\r\n        BettingResult currentBettingResult;\r\n        for(cur =_head; cur < _tail; cur++) {\r\n            b = _bets[cur];\r\n            currentBlockStatus = getBlockStatus(b.answerBlockNumber);\r\n            //     : block.number > AnswerBlockNumber && block.number < BlOCK_LIMIT + AnserBlockNumber 1\r\n            if(currentBlockStatus == BlockStatus.Checkable) {\r\n                bytes32 answerBlockHash = getAnswerBlockHash(b.answerBlockNumber);\r\n                currentBettingResult = isMatch(b.challenges, answerBlockHash);\r\n                // if win   \r\n            if(currentBettingResult == BettingResult.Win) {\r\n                //  ,  0 , WIN \r\n               transferAmount = transferAfterPayingFee(b.bettor, _pot + BET_AMOUNT);\r\n               _pot = 0;\r\n               emit WIN(cur, b.bettor, transferAmount, b.challenges, answerBlockHash[0], b.answerBlockNumber);\r\n            }\r\n                // if fail   \r\n                //    , FAIL  \r\n            if(currentBettingResult == BettingResult.Fail) {\r\n                _pot += BET_AMOUNT;\r\n                emit FAIL(cur, b.bettor, 0, b.challenges, answerBlockHash[0], b.answerBlockNumber);\r\n            }\r\n                // if draw \r\n                //   , DRAW \r\n            if(currentBettingResult == BettingResult.Draw) {\r\n               transferAmount = transferAfterPayingFee(b.bettor, BET_AMOUNT);\r\n               emit DRAW(cur, b.bettor, transferAmount, b.challenges, answerBlockHash[0], b.answerBlockNumber);            \r\n            }\r\n        }\r\n            // block    : block.number <= AnswerBlockNumber 2\r\n            if(currentBlockStatus == BlockStatus.NotRevealed) {\r\n                break;\r\n            }\r\n            // block   : block.number >= AnswerBlockNumber + BLOCK_LIMIT 3\r\n            if(currentBlockStatus == BlockStatus.BlockLimitPassed) {\r\n                //  :   \r\n                transferAmount = transferAfterPayingFee(b.bettor, BET_AMOUNT);\r\n                emit REFUND(cur, b.bettor, transferAmount, b.challenges, b.answerBlockNumber);\r\n            }\r\n\r\n            popBet(cur);\r\n        }\r\n        _head = cur;\r\n    }\r\n\r\n        //   \r\n        function transferAfterPayingFee(address payable addr, uint256 amount) internal returns(uint256) {\r\n            uint256 fee = 0; \r\n            uint256 amountWithoutFee = amount - fee; \r\n            // uint256 fee = amount / 100; \r\n            addr.transfer(amountWithoutFee);\r\n            owner.transfer(fee);\r\n\r\n            return amountWithoutFee;\r\n        }\r\n\r\n\r\n        //   \r\n        function setAnswerForTest(bytes32 answer) public returns(bool result) {\r\n            require(msg.sender == owner, \"onlyower cna set the answer for test mode\");\r\n            answerForTest = answer;\r\n            return true;\r\n        }\r\n        function getAnswerBlockHash(uint256 answerBlockNumber) internal view returns(bytes32 answer) {\r\n            return mode ? blockhash(answerBlockNumber) : answerForTest;\r\n        }\r\n        function isMatch(bytes1 challenges, bytes32 answer) public pure returns(BettingResult) {\r\n        // challenges 0xab\r\n        // answer 0xab....ff 32bytes\r\n\r\n        bytes1 c1 = challenges;\r\n        bytes1 c2 = challenges;\r\n\r\n        bytes1 a1 = answer[0];\r\n        bytes1 a2 = answer[0];\r\n\r\n        //   \r\n        c1 = c1 >> 4; // 0xab -> 0x0a\r\n        c1 = c1 << 4; // ox0a -> 0xa0\r\n\r\n        a1 = a1 >> 4;\r\n        a1 = a1 << 4;\r\n\r\n        //   \r\n        c2 = c2 << 4; // 0xab -> 0xb0\r\n        c2 = c2 >> 4; // 0xb0 -> 0x0b\r\n\r\n        a2 = a2 << 4;\r\n        a2 = a2 >> 4;\r\n\r\n        if(a1 == c1 && a2 == c2) {\r\n            return BettingResult.Win;\r\n        }\r\n\r\n        if(a1 == c1 || a2 == c2) {\r\n            return BettingResult.Draw;\r\n        }\r\n\r\n        return BettingResult.Fail;\r\n    }    \r\n\r\n\r\n\r\n    function getBlockStatus(uint256 answerBlockNumber) internal view returns (BlockStatus) {\r\n        if(block.number > answerBlockNumber && block.number < BLOCK_LIMIT + answerBlockNumber) {\r\n            return BlockStatus.Checkable;\r\n        }\r\n\r\n        if(block.number <= answerBlockNumber) {\r\n            return BlockStatus.NotRevealed;\r\n        }\r\n\r\n        if(block.number >= answerBlockNumber + BLOCK_LIMIT) {\r\n            return BlockStatus.BlockLimitPassed;\r\n        }\r\n\r\n        return BlockStatus.BlockLimitPassed;\r\n    }\r\n\r\n\r\n    function getBetInfo(uint256 index) public view returns (uint256 answerBlockNumber, address bettor, bytes1 challenges) {\r\n        BetInfo memory b = _bets[index];\r\n        answerBlockNumber = b.answerBlockNumber;\r\n        bettor = b.bettor;\r\n        challenges = b.challenges;\r\n    }\r\n\r\n    function pushBet(bytes1 challenges) internal returns (bool) {\r\n         BetInfo memory b;\r\n         b.bettor = payable(msg.sender);\r\n         b.answerBlockNumber = block.number + BET_BLOCK_INTERVAL;\r\n         b.challenges = challenges;\r\n\r\n         _bets[_tail] = b;\r\n         _tail++;\r\n\r\n         return true;\r\n    }\r\n\r\n    function popBet(uint256 index) internal returns (bool) {\r\n        delete _bets[index];\r\n        return true;\r\n    }\r\n}",
  "sourcePath": "/home/wjdgus2903/work/lottery-smart-contract/contracts/Lottery.sol",
  "compiler": {
    "name": "solc",
    "version": "0.8.13+commit.abaa5c0e.Emscripten.clang"
  },
  "schemaVersion": "3.4.6",
  "updatedAt": "2022-04-24T00:17:02.408Z",
  "networkType": "ethereum",
  "devdoc": {
    "kind": "dev",
    "methods": {},
    "version": 1
  },
  "userdoc": {
    "kind": "user",
    "methods": {},
    "version": 1
  }
}