{
  "contractName": "Lottery",
  "abi": [
    {
      "inputs": [],
      "stateMutability": "nonpayable",
      "type": "constructor"
    },
    {
      "anonymous": false,
      "inputs": [
        {
          "indexed": false,
          "internalType": "uint256",
          "name": "index",
          "type": "uint256"
        },
        {
          "indexed": false,
          "internalType": "address",
          "name": "bettor",
          "type": "address"
        },
        {
          "indexed": false,
          "internalType": "uint256",
          "name": "amount",
          "type": "uint256"
        },
        {
          "indexed": false,
          "internalType": "bytes",
          "name": "challenges",
          "type": "bytes"
        },
        {
          "indexed": false,
          "internalType": "uint256",
          "name": "answerBlockNumber",
          "type": "uint256"
        }
      ],
      "name": "BET",
      "type": "event"
    },
    {
      "inputs": [],
      "name": "owner",
      "outputs": [
        {
          "internalType": "address",
          "name": "",
          "type": "address"
        }
      ],
      "stateMutability": "view",
      "type": "function"
    },
    {
      "inputs": [
        {
          "internalType": "bytes",
          "name": "challenges",
          "type": "bytes"
        }
      ],
      "name": "bet",
      "outputs": [
        {
          "internalType": "bool",
          "name": "result",
          "type": "bool"
        }
      ],
      "stateMutability": "payable",
      "type": "function"
    },
    {
      "inputs": [],
      "name": "getPot",
      "outputs": [
        {
          "internalType": "uint256",
          "name": "pot",
          "type": "uint256"
        }
      ],
      "stateMutability": "view",
      "type": "function"
    },
    {
      "inputs": [
        {
          "internalType": "uint256",
          "name": "index",
          "type": "uint256"
        }
      ],
      "name": "getBetInfo",
      "outputs": [
        {
          "internalType": "uint256",
          "name": "answerBlockNumber",
          "type": "uint256"
        },
        {
          "internalType": "address",
          "name": "bettor",
          "type": "address"
        },
        {
          "internalType": "bytes",
          "name": "challenges",
          "type": "bytes"
        }
      ],
      "stateMutability": "view",
      "type": "function"
    },
    {
      "inputs": [
        {
          "internalType": "bytes",
          "name": "challenges",
          "type": "bytes"
        }
      ],
      "name": "pushBet",
      "outputs": [
        {
          "internalType": "bool",
          "name": "",
          "type": "bool"
        }
      ],
      "stateMutability": "nonpayable",
      "type": "function"
    },
    {
      "inputs": [
        {
          "internalType": "uint256",
          "name": "index",
          "type": "uint256"
        }
      ],
      "name": "popBet",
      "outputs": [
        {
          "internalType": "bool",
          "name": "",
          "type": "bool"
        }
      ],
      "stateMutability": "nonpayable",
      "type": "function"
    }
  ],
  "bytecode": "0x608060405234801561001057600080fd5b5033600360006101000a81548173ffffffffffffffffffffffffffffffffffffffff021916908373ffffffffffffffffffffffffffffffffffffffff160217905550610cd8806100616000396000f3fe6080604052600436106100555760003560e01c8063403c9fa81461005a578063599eac8a1461008557806379141f80146100b55780638da5cb5b146100f4578063982141351461011f578063d04c9a8c1461015c575b600080fd5b34801561006657600080fd5b5061006f610199565b60405161007c919061068f565b60405180910390f35b61009f600480360381019061009a9190610804565b6101a3565b6040516100ac9190610868565b60405180910390f35b3480156100c157600080fd5b506100dc60048036038101906100d791906108af565b610298565b6040516100eb939291906109a5565b60405180910390f35b34801561010057600080fd5b506101096103ce565b60405161011691906109e3565b60405180910390f35b34801561012b57600080fd5b5061014660048036038101906101419190610804565b6103f4565b6040516101539190610868565b60405180910390f35b34801561016857600080fd5b50610183600480360381019061017e91906108af565b6104fc565b6040516101909190610868565b60405180910390f35b6000600454905090565b60006611c37937e0800034146101ee576040517f08c379a00000000000000000000000000000000000000000000000000000000081526004016101e590610a5b565b60405180910390fd5b6101f7826103f4565b610236576040517f08c379a000000000000000000000000000000000000000000000000000000000815260040161022d90610ac7565b60405180910390fd5b7f2fd14896e96d250bb5049b83d0198fc7663c624bc855bd734f54a2d56cab236b60016000546102669190610b16565b3334856003436102769190610b4a565b604051610287959493929190610ba0565b60405180910390a160019050919050565b6000806060600060026000868152602001908152602001600020604051806060016040529081600082015481526020016001820160009054906101000a900473ffffffffffffffffffffffffffffffffffffffff1673ffffffffffffffffffffffffffffffffffffffff1673ffffffffffffffffffffffffffffffffffffffff16815260200160028201805461032d90610c29565b80601f016020809104026020016040519081016040528092919081815260200182805461035990610c29565b80156103a65780601f1061037b576101008083540402835291602001916103a6565b820191906000526020600020905b81548152906001019060200180831161038957829003601f168201915b5050505050815250509050806000015193508060200151925080604001519150509193909250565b600360009054906101000a900473ffffffffffffffffffffffffffffffffffffffff1681565b60006103fe61055c565b33816020019073ffffffffffffffffffffffffffffffffffffffff16908173ffffffffffffffffffffffffffffffffffffffff16815250506003436104439190610b4a565b8160000181815250508281604001819052508060026000805481526020019081526020016000206000820151816000015560208201518160010160006101000a81548173ffffffffffffffffffffffffffffffffffffffff021916908373ffffffffffffffffffffffffffffffffffffffff16021790555060408201518160020190805190602001906104d7929190610593565b509050506000808154809291906104ed90610c5a565b91905055506001915050919050565b6000600260008381526020019081526020016000206000808201600090556001820160006101000a81549073ffffffffffffffffffffffffffffffffffffffff02191690556002820160006105519190610619565b505060019050919050565b604051806060016040528060008152602001600073ffffffffffffffffffffffffffffffffffffffff168152602001606081525090565b82805461059f90610c29565b90600052602060002090601f0160209004810192826105c15760008555610608565b82601f106105da57805160ff1916838001178555610608565b82800160010185558215610608579182015b828111156106075782518255916020019190600101906105ec565b5b5090506106159190610659565b5090565b50805461062590610c29565b6000825580601f106106375750610656565b601f0160209004906000526020600020908101906106559190610659565b5b50565b5b8082111561067257600081600090555060010161065a565b5090565b6000819050919050565b61068981610676565b82525050565b60006020820190506106a46000830184610680565b92915050565b6000604051905090565b600080fd5b600080fd5b600080fd5b600080fd5b6000601f19601f8301169050919050565b7f4e487b7100000000000000000000000000000000000000000000000000000000600052604160045260246000fd5b610711826106c8565b810181811067ffffffffffffffff821117156107305761072f6106d9565b5b80604052505050565b60006107436106aa565b905061074f8282610708565b919050565b600067ffffffffffffffff82111561076f5761076e6106d9565b5b610778826106c8565b9050602081019050919050565b82818337600083830152505050565b60006107a76107a284610754565b610739565b9050828152602081018484840111156107c3576107c26106c3565b5b6107ce848285610785565b509392505050565b600082601f8301126107eb576107ea6106be565b5b81356107fb848260208601610794565b91505092915050565b60006020828403121561081a576108196106b4565b5b600082013567ffffffffffffffff811115610838576108376106b9565b5b610844848285016107d6565b91505092915050565b60008115159050919050565b6108628161084d565b82525050565b600060208201905061087d6000830184610859565b92915050565b61088c81610676565b811461089757600080fd5b50565b6000813590506108a981610883565b92915050565b6000602082840312156108c5576108c46106b4565b5b60006108d38482850161089a565b91505092915050565b600073ffffffffffffffffffffffffffffffffffffffff82169050919050565b6000610907826108dc565b9050919050565b610917816108fc565b82525050565b600081519050919050565b600082825260208201905092915050565b60005b8381101561095757808201518184015260208101905061093c565b83811115610966576000848401525b50505050565b60006109778261091d565b6109818185610928565b9350610991818560208601610939565b61099a816106c8565b840191505092915050565b60006060820190506109ba6000830186610680565b6109c7602083018561090e565b81810360408301526109d9818461096c565b9050949350505050565b60006020820190506109f8600083018461090e565b92915050565b600082825260208201905092915050565b7f4e6f7420656e6f75676820455448000000000000000000000000000000000000600082015250565b6000610a45600e836109fe565b9150610a5082610a0f565b602082019050919050565b60006020820190508181036000830152610a7481610a38565b9050919050565b7f4661696c20746f206164642061206e6577200000000000000000000000000000600082015250565b6000610ab16012836109fe565b9150610abc82610a7b565b602082019050919050565b60006020820190508181036000830152610ae081610aa4565b9050919050565b7f4e487b7100000000000000000000000000000000000000000000000000000000600052601160045260246000fd5b6000610b2182610676565b9150610b2c83610676565b925082821015610b3f57610b3e610ae7565b5b828203905092915050565b6000610b5582610676565b9150610b6083610676565b9250827fffffffffffffffffffffffffffffffffffffffffffffffffffffffffffffffff03821115610b9557610b94610ae7565b5b828201905092915050565b600060a082019050610bb56000830188610680565b610bc2602083018761090e565b610bcf6040830186610680565b8181036060830152610be1818561096c565b9050610bf06080830184610680565b9695505050505050565b7f4e487b7100000000000000000000000000000000000000000000000000000000600052602260045260246000fd5b60006002820490506001821680610c4157607f821691505b602082108103610c5457610c53610bfa565b5b50919050565b6000610c6582610676565b91507fffffffffffffffffffffffffffffffffffffffffffffffffffffffffffffffff8203610c9757610c96610ae7565b5b60018201905091905056fea2646970667358221220aecb0ebdfc5fdba0afe0f7b302d1a5f4891a34ee0da641f86bccafc792a39fe464736f6c634300080d0033",
  "immutableReferences": {},
  "source": "// SPDX-License-Identifier: MIT\r\npragma solidity >=0.4.22 <0.9.0;\r\n\r\n/* \r\nLottery \r\n1. + 3     '0xab....'\r\na.      + 3   \r\n\r\n2.  \r\na.       \r\nb.         .\r\nc.         . 0.005ETH : 5 * 10 ** 15 wei\r\nd.         .\r\n*/\r\n\r\ncontract Lottery {\r\n    struct BetInfo {\r\n        uint256 answerBlockNumber; //    \r\n        address payable bettor; //  \r\n        bytes challenges; // ex : 0xab Lottery \r\n    }\r\n\r\n    uint256 private _tail; \r\n    uint256 private _head;\r\n    mapping (uint256 => BetInfo) private _bets;  // bets  queue    tail  0 head  \r\n    address public owner; // contract \r\n\r\n\r\n    uint256 constant internal BLOCK_LIMIT = 256; //  256  \r\n    uint256 constant internal BET_BLOCK_INTERVAL = 3; // +3   \r\n    uint256 constant internal BET_AMOUNT = 5 * 10 ** 15; //  \r\n    uint256 private _pot; //  \r\n\r\n    event BET(uint256 index, address bettor, uint256 amount, bytes challenges, uint256 answerBlockNumber);\r\n\r\n    constructor() {\r\n        owner = msg.sender;\r\n    }\r\n\r\n    /** \r\n    * @dev  .  0.005 ETH  ,  1byte  .\r\n    *      distribute  .\r\n    */\r\n\r\n    //  \r\n    function bet(bytes memory challenges) public payable returns (bool result) {\r\n        //    \r\n        require(msg.value == BET_AMOUNT, \"Not enough ETH\");\r\n        // queue bet \r\n        require(pushBet(challenges), \"Fail to add a new \");\r\n        //  \r\n        emit BET(_tail -1, msg.sender, msg.value, challenges, block.number + BET_BLOCK_INTERVAL);\r\n        return true;\r\n    }\r\n\r\n\r\n\r\n    //   \r\n    function getPot() public view returns (uint256 pot) {\r\n        return _pot;\r\n    }\r\n\r\n    //  () queue  \r\n\r\n    //  ()          \r\n\r\n    function getBetInfo(uint256 index) public view returns (uint256 answerBlockNumber, address bettor, bytes memory challenges) {\r\n        BetInfo memory b = _bets[index];\r\n        answerBlockNumber = b.answerBlockNumber;\r\n        bettor = b.bettor;\r\n        challenges = b.challenges;\r\n    }\r\n\r\n    function pushBet(bytes memory challenges) public returns (bool) {\r\n         BetInfo memory b;\r\n         b.bettor = payable(msg.sender);\r\n         b.answerBlockNumber = block.number + BET_BLOCK_INTERVAL;\r\n         b.challenges = challenges;\r\n\r\n         _bets[_tail] = b;\r\n         _tail++;\r\n\r\n         return true;\r\n    }\r\n\r\n    function popBet(uint256 index) public returns (bool) {\r\n        delete _bets[index];\r\n        return true;\r\n    }\r\n}",
  "sourcePath": "/home/wjdgus2903/work/lottery-smart-contract/contracts/Lottery.sol",
  "compiler": {
    "name": "solc",
    "version": "0.8.13+commit.abaa5c0e.Emscripten.clang"
  },
  "schemaVersion": "3.4.6",
  "updatedAt": "2022-04-22T13:17:36.504Z",
  "devdoc": {
    "kind": "dev",
    "methods": {
      "bet(bytes)": {
        "details": " .  0.005 ETH  ,  1byte  .      distribute  ."
      }
    },
    "version": 1
  },
  "userdoc": {
    "kind": "user",
    "methods": {},
    "version": 1
  }
}